:03000000020800F3
:0C080000787FE4F6D8FD758155020847AA
:1009930015323F065B4F666D7D077F6F777C395E4F
:1009A300797100387467A708120001020304050671
:1009B30007101E001000100010001000100010009F
:1009C300100010014F00014801014700020C000014
:1009D30002100000021A0000021C000002080000BE
:1009E30002300000022E0000010F00020A00000185
:0209F3000E00F4
:0B0EE900EF1FAC0670011E4C70F622DB
:0B0DE300AD097F01120EB27F057E00FB
:040DEE00EF4E601351
:100DF20075540B7555BED555FDD554FAEF1F70ECE1
:010E02001ED1
:030E030080E92261
:050F1200120F17D2CD03
:010F170022B7
:0A0EF400D2CD120F17D2C0020F1763
:0A0EFE00D2C0120F12C2C0020F177B
:0A0F0800C2C0120F12D2C0020F1770
:0B0E0600120E4B120E11AF05120E4B26
:100E1100E4FFD2CD120F1730C009EFC394FF500386
:080E21000F80F4C2CD020F178F
:100E4B00E4FEEF25E0FFC2CD120F1792C0120F1276
:0E0E5B000EBE08EEC2CD120F17D2C0020F1746
:100D6900C2CD120F17D2C0120F17E4FED2CD120F47
:100D790017EF25E0FDA2C0E4334DFF120F17C2CDD6
:0A0D8900120F170EBE08E5120F1737
:010D9300223D
:100EB200AC07120EFE7FA0120E4B120E11AF0412DF
:050EC2000E06020F08FE
:020E6900AD07D3
:100E6B00120EFE7FA0120E06120EFE7FA1120E4B6B
:090E7B00120E11120D69120F088C
:010E8400224B
:10091700E4F54F754801F52EF52FAF80F50C8F0DD7
:10092700E5092402F50EE50D65317004E50C653027
:10093700702C0511E51170020510640F4510704BFE
:1009470085101A85111B85081C85091DAD11FF121D
:100957000DE7120DE3E5092402FFAD118025D3E56C
:1009670011951BE510951A401685101A85111B85E0
:10097700081C85091DAD11E4FF120DE7120DE3AD4B
:0C09870011AF0E120DE7E4F510F511227F
:100EC70075BCEF00000000E5BC30E4FB53BCEFAF9E
:010ED700BD5D
:010ED80022F7
:100DBD00120EC7EFF4601C7FC87E00120EE9120EF2
:100DCD00C7EFF4600E5307E07805EF08800103D8F4
:050DDD00FDFF227F076D
:010DE20022EE
:1009F600120DBDEF64076051AD07EF640760051285
:100A06000DBD80F6ED14601614603724FE602124B7
:100A1600047036E5487002801CE4F548802BE548F2
:100A2600B401057548808021E548C313F54880194F
:100A3600E548B48005754801800FE54825E0F5488E
:100A46008007120D948E0A8F0B7FE87E03020EE953
:100BEF00120B567C017D001208E18C308D31AE3036
:100BFF00AF317C007D0A12088C8C498D4AAE30AF24
:100C0F00317C007D0A12088C7C007D0A12088C8CC6
:100C1F004B8D4CAE30AF317C007D6412088C7C0064
:0A0C2F007D0A12088C8C4D8D4E22B8
:100E8500E4F547E54725E0241EF8760008761005C9
:070E950047E547B408ED2218
:100D3B00E4F547E4F58074122547F8E6F5A0E5479E
:100D4B0025E0241EF808E62432F8E6F5807F017EC4
:0E0D5B0000120DEE0547E547C3940840D6226E
:100E2900120E85851A1E851B1F851024851125859F
:100E39004D28854E29854B2A854C2B85492C854A79
:020E49002D2258
:100BA300120E85E50F700EF51EF51FF52675270944
:100BB300F528F52922E50FB4011F751E00751F01E5
:100BC300752600752711752800752901752A00758A
:100BD3002B05752C00752D0722751E00751F0275D8
:0C0BE3002A00752B0A752C00752D0E22BF
:100A5600120E85E50F7021F51E751F12F520752102
:100A660001F522752309F524752512851C28851D97
:100A760029851A2C851B2D22751E00751F117520C0
:100A8600007521017522007523057524007525075B
:100A9600E50F24FFF529E434FFF528E50F04FF12DE
:0B0AA6000E69752C008F2D120DEA2246
:100E9C00120E8575220075230175240075250D85AC
:060EAC00082C85092D222F
:100ED900120E85752A00752B13752C00752D142299
:100D9400C2A3120ED9120D3B20B20E120DEA20B2DC
:100DA4000830B2FD7E007F012220B3E4120DEA2058
:090DB400B3DE30B3FDE4FEFF22C2
:100AB100120E85C2A3E52F452E7009120BEF752E7C
:100AC10000752F01120E29120D3BD2A3E4F580E52A
:100AD1004F4548F5807F017E00120DEE1209F62088
:100AE100B20C120DEA20B20630B2FD12091720B382
:100AF1000D120DEA20B30730B3FDE548624FE50B57
:070B01006401450A70AD22FA
:100C8300E4F50FF50AF50BC2A3120E9C120D3B20DF
:100C9300B20C120DEA20B20630B2FD020AB120B343
:100CA300E6120DEA20B3E030B3FDE509640F450811
:100CB3007006F508F50980CF0509E50970C905082F
:020CC30080C5EA
:100D07008029C2A3120A56120D3B20B20D120DEA1A
:100D170020B20730B2FDE4F50F2220B3E5120DEA49
:100D270020B3DF30B3FDE50FB41005E4F50F80D233
:040D3700050F80CE56
:100CC500E4F50F120E85C2A3120ED9120D3B20B208
:100CD50024120DEA20B21E30B2FDE4F547E4FDAF63
:100CE50047120EB27F0A7E00120DEE0547E547C397
:100CF500941540E92220B3CE120DEA20B3C830B3D3
:020D0500FD22CD
:100B0800E4F5937594FFF595759608F5B175B210EF
:100B1800C2B4C2A3759D80F5BD75BC8FF597C28818
:100B2800C28AD2AFF589758CFF758A03D2A9D28C97
:100B3800F580F52EF52FC2A3F54FFF120E69751A31
:0E0B4800008F1B7F01120E69751C008F1D228D
:100C3900120B08120EF4C2A3120BA3120D3B20B221
:100C49001F120DEA20B21930B2FDE50F7005120C22
:100C590083800DE50FB40105120D078003120CC541
:100C690020B3D3120DEA20B3CD30B3FDE50FB402A2
:0A0C790005E4F50F80C0050F80BCF4
:10080C00020C39E493A3F8E493A34003F68001F2BD
:10081C0008DFF48029E493A3F85407240CC8C333ED
:10082C00C4540F4420C8834004F456800146F6DFBC
:10083C00E4800B0102040810204080900993E47EB0
:10084C00019360BCA3FF543F30E509541FFEE493B1
:10085C00A360010ECF54C025E060A840B8E493A378
:10086C00FAE493A3F8E493A3C8C582C8CAC583CAA3
:10087C00F0A3C8C582C8CAC583CADFE9DEE780BE5B
:0109F5000001
:10088C00BC000BBE0029EF8DF084FFADF022E4CC50
:10089C00F875F008EF2FFFEE33FEEC33FCEE9DEC19
:1008AC00984005FCEE9DFE0FD5F0E9E4CEFD22ED5F
:1008BC00F8F5F0EE8420D21CFEADF075F008EF2FA9
:1008CC00FFED33FD4007985006D5F0F222C398FD9A
:0508DC000FD5F0EA2237
:1008E100C2D5EC30E709B2D5E4C39DFDE49CFCEE32
:1008F10030E715B2D5E4C39FFFE49EFE12088CC316
:10090100E49DFDE49CFC800312088C30D507C3E410
:060911009FFFE49EFE22A0
:100B5600AC50AD51AE52AF537810EC4D4E4F7004C1
:100B66007CA57DA5C3EC13FCED13FDEE13FEEF1380
:100B7600FF5010EC64CCFCED644CFDEE644EFEEFD1
:100B860064CEFFD8DF8C508D518E528F53EE547F3A
:0D0B9600FE228E508F5174A5F552F55322AA
:00000001FF
