:03000000020800F3
:0C080000787FE4F6D8FD75817F02084780
:1009170015623F065B4F666D7D077F6F777C395E9B
:10092700797100387467A7082A00010203040506D5
:100937000708320102040810204080103E00100012
:1009470010001000100010001000100010105200CE
:10095700000000000000000000000000000000018F
:100967007F000178010177000225000002280000BE
:10097700023A0000023C0000022100000250000081
:0B098700024E000001270002230000C8
:100BC800E4F5937594FFF595759608F5B175B2102F
:100BD800C2A3759D80F5BD75BC8FF597C288C28A82
:100BE800D2AFF589758CFF758A03D2A9D28CC20061
:0F0BF800F580C2B4F54EF54FC2A3F57FD2A4220B
:0B0DAD00EF1FAC0670011E4C70F62218
:040D42007F057E00AB
:040D4600EF4E6013F9
:100D4A00750C0B750DBED50DFDD50CFAEF1F70ECA9
:010D5A001E7A
:030D5B0080E9220A
:100A4A00E4F57F757801F54EF54FAF80F5258F26D1
:100A5A00E526B55121E525B5501C0529E529700281
:100A6A000528640F4528702A85283A85293B85215F
:100A7A003C85223D8018D3E529953BE528953A40E7
:100A8A000C85283A85293B85213C85223DE4F528B9
:030A9A00F5292219
:100D8B0075BCEF00000000E5BC30E4FB53BCEFAFDB
:010D9B00BD9A
:010D9C002234
:100CFA00120D8BEFF4601C7FC87E00120DAD120D31
:100D0A008BEFF4600E5307E07805EF08800103D8F3
:050D1A00FDFF227F0730
:010D1F0022B1
:10099300120CFAEF64076051AD07EF6407600512AC
:1009A3000CFA80F6ED14601614603724FE602124DF
:1009B300047036E5787002801CE4F578802BE578C6
:1009C300B401057578808021E578C313F578801923
:1009D300E578B48005757801800FE57825E0F57832
:1009E3008007120CD18E238F247FE87E03020DAD86
:100B3C00120AEF7C017D001208E18C508D51AE50F1
:100B4C00AF517C007D0A12088C8C798D7AAE50AF37
:100B5C00517C007D0A12088C7C007D0A12088C8C5A
:100B6C007B8D7CAE50AF517C007D6412088C7C0078
:0A0B7C007D0A12088C8C7D8D7E220C
:100D5E00E4F577E57725E0243EF876000876100571
:070D6E0077E577B408ED22E0
:100CA300E4F577E4F580742A2577F8E6F5A0E5778F
:100CB30025E0243EF808E62462F8E6F5807F017E0D
:0E0CC30000120D460577E577C3940840D6224F
:100D2000120D5E853A3E853B3F85284485294585E1
:100D30007D48857E49857B4A857C4B85794C857AC3
:020D40004D2242
:100C0700120D5EE527700EF53EF53FF5467547096F
:100C1700F548F54922753E00753F01754600754751
:100C270011754800754901754A00754B05754C00EB
:040C3700754D0722CE
:1009F300120D5EE5277021F53E753F12F5407541F6
:100A030001F542754309F544754512853C48853D1A
:100A130049853A4C853B4D22753E00753F11754023
:100A2300007541017542007543057544007545071E
:100A3300E52724FFF549E434FFF54874512527F8E9
:070A4300E6754C00F54D22A1
:100D7500120D5E75420075430175440075450D857C
:060D8500214C85224D22E5
:100D9D00120D5E754A00754B13754C00754D14227E
:100CD100C2A3120D9D120CA320B20E120D4220B21E
:100CE1000830B2FD7E007F012220B3E4120D4220C4
:090CF100B3DE30B3FDE4FEFF2286
:100A9D00120D5EC2A3E54F454E7009120B3C754E0B
:100AAD0000754F01120D20120CA3D2A3E4F580E5C1
:100ABD007F4578F5807F017E00120D461209932047
:100ACD00B20E120D4220B20830B2FD120A4A80C396
:100ADD0020B3C0120D4220B3BA30B3FDE578627F6A
:020AED0080B1D6
:100B8600E4F527F523F524C2A3120D75120CA32054
:100B9600B20C120D4220B20630B2FD020A9D20B3FD
:100BA600E6120D4220B3E030B3FDE522640F452185
:100BB6007006F521F52280CF0522E52270C90521B0
:020BC60080C5E8
:100C3B008029C2A31209F3120CA320B20D120D428C
:100C4B0020B20730B2FDE4F5272220B3E5120D42A6
:100C5B0020B3DF30B3FDE527B41005E4F52780D2D0
:040C6B00052780CE0B
:100C6F00120BC8C2A3120C07120CA320B215120D3F
:100C7F004220B20F30B2FDE5277005120B868003BC
:100C8F00120C3B20B3DD120D4220B3D730B3FD63FE
:040C9F00270180CFDA
:03000B00020DB82B
:090DB800300003B2B432C2B432BF
:10080C00020C6FE493A3F8E493A34003F68001F287
:10081C0008DFF48029E493A3F85407240CC8C333ED
:10082C00C4540F4420C8834004F456800146F6DFBC
:10083C00E4800B0102040810204080900917E47E2C
:10084C00019360BCA3FF543F30E509541FFEE493B1
:10085C00A360010ECF54C025E060A840B8E493A378
:10086C00FAE493A3F8E493A3C8C582C8CAC583CAA3
:10087C00F0A3C8C582C8CAC583CADFE9DEE780BE5B
:010992000064
:10088C00BC000BBE0029EF8DF084FFADF022E4CC50
:10089C00F875F008EF2FFFEE33FEEC33FCEE9DEC19
:1008AC00984005FCEE9DFE0FD5F0E9E4CEFD22ED5F
:1008BC00F8F5F0EE8420D21CFEADF075F008EF2FA9
:1008CC00FFED33FD4007985006D5F0F222C398FD9A
:0508DC000FD5F0EA2237
:1008E100C2D5EC30E709B2D5E4C39DFDE49CFCEE32
:1008F10030E715B2D5E4C39FFFE49EFE12088CC316
:10090100E49DFDE49CFC800312088C30D507C3E410
:060911009FFFE49EFE22A0
:100AEF00AC08AD09AE0AAF0B7810EC4D4E4F700449
:100AFF007CA57DA5C3EC13FCED13FDEE13FEEF13E8
:100B0F00FF5010EC64CCFCED644CFDEE644EFEEF38
:100B1F0064CEFFD8DF8C088D098E0A8F0BEE547FC1
:0D0B2F00FE228E088F0974A5F50AF50B2231
:00000001FF
