:03000000020800F3
:0C080000787FE4F6D8FD758156020847A9
:1009990017313F065B4F666D7D077F6F777C395E48
:1009A900797100387467A777790811000102030487
:1009B900050607101D00100010001000100010009F
:1009C9001000100010015000014901014800020CFB
:1009D9000000020F000002190000021B00000208BB
:1009E9000000022F0000022D0000010E00020A0083
:0109F90000FD
:0B0EE100EF1FAC0670011E4C70F622E3
:040E45007F057E00A7
:040E4900EF4E6013F5
:100E4D0075550B7556BED556FDD555FAEF1F70EC81
:010E5D001E76
:030E5E0080E92206
:050F0A00120F0FD2CD13
:010F0F0022BF
:0A0EEC00D2CD120F0FD2C0020F0F7B
:0A0EF600D2C0120F0AC2C0020F0F93
:0A0F0000C2C0120F0AD2C0020F0F88
:0B0DE200120E27120DEDAF05120E27B8
:100DED00E4FFD2CD120F0F30C009EFC394FF5003B3
:080DFD000F80F4C2CD020F0FBC
:100E2700E4FEEF25E0FFC2CD120F0F92C0120F0AAA
:0E0E37000EBE08EEC2CD120F0FD2C0020F0F7A
:100D6800C2CD120F0FD2C0120F0FE4FED2CD120F58
:100D78000FEF25E0FDA2C0E4334DFF120F0FC2CDE7
:0A0D8800120F0F0EBE08E5120F0F48
:010D9200223E
:100EAA00AC07120EF67FA0120E27120DEDAF041238
:050EBA000DE2020F0033
:020E6100AD07DB
:100E6300120EF67FA0120DE2120EF67FA1120E27CC
:090E7300120DED120D68120F00C2
:010E7C002253
:10091700E4F550754901F52DF52EAF80F50C8F0DD7
:10092700E50D65307004E50C652F70310510E51095
:100937007002050F640F450F7057850F1985101A40
:1009470085081B85091CE5092402FFAD10120EAAB4
:10095700AD10E4FF120EAAAD097F01802CD3E5107C
:10096700951AE50F9519401A850F1985101A8508EC
:100977001B85091CAD10E4FF120EAAAD097F0112F9
:100987000EAAE5092402FFAD10120EAAE4F50FF531
:0209970010222C
:100EBF0075BCEF00000000E5BC30E4FB53BCEFAFA6
:010ECF00BD65
:010ED00022FF
:100DBC00120EBFEFF4601C7FC87E00120EE1120E03
:100DCC00BFEFF4600E5307E07805EF08800103D8FD
:050DDC00FDFF227F076E
:010DE10022EF
:1009FB00120DBCEF64076051AD07EF640760051281
:100A0B000DBC80F6ED14601614603724FE602124B3
:100A1B00047036E5497002801CE4F549802BE549EA
:100A2B00B401057549808021E549C313F549801947
:100A3B00E549B48005754901800FE54925E0F54985
:100A4B008007120D938E0A8F0B7FE87E03020EE157
:100BF100120B587C017D001208E18C2F8D30AE2F35
:100C0100AF307C007D0A12088C8C4A8D4BAE2FAF21
:100C1100307C007D0A12088C7C007D0A12088C8CC5
:100C21004C8D4DAE2FAF307C007D6412088C7C0062
:0A0C31007D0A12088C8C4E8D4F22B4
:100E7D00E4F548E54825E0241DF8760008761005D0
:070E8D0048E548B408ED221E
:100D3A00E4F548E4F58074112548F8E6F5A0E5489D
:100D4A0025E0241DF808E62431F8E6F5807F017EC7
:0E0D5A0000120E490548E548C3940840D62211
:100E0500120E7D85191D851A1E850F2385102485D3
:100E15004E27854F28854C29854D2A854A2B854B9C
:020E25002C227D
:100BA500120E7DE50E700EF51DF51EF5257526094F
:100BB500F527F52822E50EB4011F751D00751E01E8
:100BC500752500752611752700752801752900758D
:100BD5002A05752B00752C0722751D00751E0275DB
:0C0BE5002900752A15752B00752C1622AE
:100A5B00120E7DE50E7021F51D751E12F51F75200A
:100A6B0001F521752209F523752412851B27851C99
:100A7B002885192B851A2C22751D00751E11751FC3
:100A8B00007520017521007522057523007524075B
:100A9B00E50E24FFF528E434FFF527E50E04FF12DD
:080AAB000E61752B008F2C2257
:100E9400120E7D75210075220175230075240D85C0
:060EA400082B85092C2239
:100ED100120E7D752900752A13752B00752C1422AD
:100D9300C2A3120ED1120D3A20B20E120E4520B28A
:100DA3000830B2FD7E007F012220B3E4120E4520FD
:090DB300B3DE30B3FDE4FEFF22C3
:100AB300120E7DC2A3E52E452D7009120BF1752D83
:100AC30000752E01120E05120D3AD2A3E4F580E54E
:100AD300504549F5807F017E00120E491209FB2023
:100AE300B20C120E4520B20630B2FD12091720B324
:100AF3000D120E4520B30730B3FDE5496250E50BF7
:070B03006401450A70AD22F8
:100C8500E4F50EF50AF50BC2A3120E94120D3A20E7
:100C9500B20C120E4520B20630B2FD020AB320B3E3
:100CA500E6120E4520B3E030B3FDE509640F4508B3
:100CB5007006F508F50980CF0509E50970C905082D
:020CC50080C5E8
:100D06008029C2A3120A5B120D3A20B20D120E45BB
:100D160020B20730B2FDE4F50E2220B3E5120E45EF
:100D260020B3DF30B3FDE50EB41005E4F50E80D236
:040D3600050E80CE58
:100CC700120E7DC2A3120ED1120D3A20B224120EBB
:100CD7004520B21E30B2FDE4F548E4FDAF48120EE0
:100CE700AA7F0A7E00120E490548E548C3941540BD
:0F0CF700E92220B3CE120E4520B3C830B3FD2240
:100B0A00E4F5937594FFF595759608F5B175B210ED
:100B1A00C2B4C2A3759D80F5BD75BC8FF597C28816
:100B2A00C28AD2AFF589758CFF758A03D2A9D28C95
:100B3A00F580F52DF52EC2A3F550FF120E61751939
:0E0B4A00008F1A7F01120E61751B008F1C2296
:100C3B00120B0A120EECC2A3120BA5120D3A20B224
:100C4B001F120E4520B21930B2FDE50E7005120CC5
:100C5B0085800DE50EB40105120D068003120CC73D
:100C6B0020B3D3120E4520B3CD30B3FDE50EB40245
:0A0C7B0005E4F50E80C0050E80BCF4
:10080C00020C3BE493A3F8E493A34003F68001F2BB
:10081C0008DFF48029E493A3F85407240CC8C333ED
:10082C00C4540F4420C8834004F456800146F6DFBC
:10083C00E4800B0102040810204080900999E47EAA
:10084C00019360BCA3FF543F30E509541FFEE493B1
:10085C00A360010ECF54C025E060A840B8E493A378
:10086C00FAE493A3F8E493A3C8C582C8CAC583CAA3
:10087C00F0A3C8C582C8CAC583CADFE9DEE780BE5B
:0109FA0000FC
:10088C00BC000BBE0029EF8DF084FFADF022E4CC50
:10089C00F875F008EF2FFFEE33FEEC33FCEE9DEC19
:1008AC00984005FCEE9DFE0FD5F0E9E4CEFD22ED5F
:1008BC00F8F5F0EE8420D21CFEADF075F008EF2FA9
:1008CC00FFED33FD4007985006D5F0F222C398FD9A
:0508DC000FD5F0EA2237
:1008E100C2D5EC30E709B2D5E4C39DFDE49CFCEE32
:1008F10030E715B2D5E4C39FFFE49EFE12088CC316
:10090100E49DFDE49CFC800312088C30D507C3E410
:060911009FFFE49EFE22A0
:100B5800AC51AD52AE53AF547810EC4D4E4F7004BB
:100B68007CA57DA5C3EC13FCED13FDEE13FEEF137E
:100B7800FF5010EC64CCFCED644CFDEE644EFEEFCF
:100B880064CEFFD8DF8C518D528E538F54EE547F34
:0D0B9800FE228E518F5274A5F553F55422A4
:00000001FF
