:03000000020800F3
:0C080000787FE4F6D8FD75817F02084780
:1009170015623F065B4F666D7D077F6F777C395E9B
:10092700797100387467A7082A00010203040506D5
:100937000708320102040810204080103E00100012
:1009470010001000100010001000100010105200CE
:10095700000000000000000000000000000000018F
:100967007F000178010177000225000002280000BE
:10097700023A0000023C0000022100000250000081
:0B098700024E000001270002230000C8
:100BDA00E4F5937594FFF595759608F5B175B2101D
:100BEA00C2A3759D80F5BD75BC8FF597C288C28A70
:100BFA00D2AFF589758CFF758A03D2A9D28CC2004F
:0F0C0A00F580C2B4F54EF54FC2A3F57FD2A422F8
:060DAF00B2007F587E0235
:0B0DB500EF1FAC0670011E4C70F62210
:040D54007F057E0099
:040D5800EF4E6013E7
:100D5C00750C0B750DBED50DFDD50CFAEF1F70EC97
:010D6C001E68
:030D6D0080E922F8
:10099300E4F57F757801F54EF54FAF80F5258F2689
:1009A300E52665517004E525655070270529E5297D
:1009B30070020528120DAFB200E529640F452870B7
:1009C30033120DAFB20085283A85293B85213C853A
:1009D300223D22D3E529953BE528953A400C85280D
:1009E3003A85293B85213C85223D120DAFB200E4B7
:0509F300F528F52922A2
:100D9D0075BCEF00000000E5BC30E4FB53BCEFAFC9
:010DAD00BD88
:010DAE002222
:100D0C00120D9DEFF4601C7FC87E00120DB5120D04
:100D1C009DEFF4600E5307E07805EF08800103D8CF
:050D2C00FDFF227F071E
:010D3100229F
:1009F800120D0CEF64076051AD07EF640760051234
:100A08000D0C80F6ED14601614603724FE60212466
:100A1800047036E5787002801CE4F578802BE57860
:100A2800B401057578808021E578C313F5788019BD
:100A3800E578B48005757801800FE57825E0F578CC
:100A48008007120CE38E238F247FE87E03020DB506
:100B4E00120B017C017D001208E18C508D51AE50CC
:100B5E00AF517C007D0A12088C8C798D7AAE50AF25
:100B6E00517C007D0A12088C7C007D0A12088C8C48
:100B7E007B8D7CAE50AF517C007D6412088C7C0066
:0A0B8E007D0A12088C8C7D8D7E22FA
:100D7000E4F577E57725E0243EF87600087610055F
:070D800077E577B408ED22CE
:100CB500E4F577E4F580742A2577F8E6F5A0E5777D
:100CC50025E0243EF808E62462F8E6F5807F017EFB
:0E0CD50000120D580577E577C3940840D6222B
:100D3200120D70853A3E853B3F85284485294585BD
:100D42007D48857E49857B4A857C4B85794C857AB1
:020D52004D2230
:100C1900120D70E527700EF53EF53FF5467547094B
:100C2900F548F54922753E00753F0175460075473F
:100C390011754800754901754A00754B05754C00D9
:040C4900754D0722BC
:100A5800120D70E5277021F53E753F12F54075417E
:100A680001F542754309F544754512853C48853DB5
:100A780049853A4C853B4D22753E00753F117540BE
:100A880000754101754200754305754400754507B9
:100A9800E52724FFF549E434FFF54874512527F884
:070AA800E6754C00F54D223C
:100D8700120D7075420075430175440075450D8558
:060D9700214C85224D22D3
:100DC000120D70754A00754B13754C00754D142249
:100CE300C2A3120DC0120CB520B20E120D5420B2C5
:100CF3000830B2FD7E007F012220B3E4120D5420A0
:090D0300B3DE30B3FDE4FEFF2273
:100AAF00120D70C2A3E54F454E7009120B4E754ED5
:100ABF0000754F01120D32120CB5D2A3E4F580E58B
:100ACF007F4578F5807F017E00120D581209F820BE
:100ADF00B20E120D5420B20830B2FD12099380C32A
:100AEF0020B3C0120D5420B3BA30B3FDE578627F46
:020AFF0080B1C4
:100B9800E4F527F523F524C2A3120D87120CB5201E
:100BA800B20C120D5420B20630B2FD020AAF20B3C7
:100BB800E6120D5420B3E030B3FDE522640F452161
:100BC8007006F521F52280CF0522E52270C905219E
:020BD80080C5D6
:100C4D008029C2A3120A58120CB520B20D120D54F0
:100C5D0020B20730B2FDE4F5272220B3E5120D5482
:100C6D0020B3DF30B3FDE527B41005E4F52780D2BE
:040C7D00052780CEF9
:100C8100120BDAC2A3120C19120CB520B215120DF7
:100C91005420B20F30B2FDE5277005120B98800386
:100CA100120C4D20B3DD120D5420B3D730B3FD63C8
:040CB100270180CFC8
:03000B00020DD013
:090DD000300003B2B432C2B432A7
:10080C00020C81E493A3F8E493A34003F68001F275
:10081C0008DFF48029E493A3F85407240CC8C333ED
:10082C00C4540F4420C8834004F456800146F6DFBC
:10083C00E4800B0102040810204080900917E47E2C
:10084C00019360BCA3FF543F30E509541FFEE493B1
:10085C00A360010ECF54C025E060A840B8E493A378
:10086C00FAE493A3F8E493A3C8C582C8CAC583CAA3
:10087C00F0A3C8C582C8CAC583CADFE9DEE780BE5B
:010992000064
:10088C00BC000BBE0029EF8DF084FFADF022E4CC50
:10089C00F875F008EF2FFFEE33FEEC33FCEE9DEC19
:1008AC00984005FCEE9DFE0FD5F0E9E4CEFD22ED5F
:1008BC00F8F5F0EE8420D21CFEADF075F008EF2FA9
:1008CC00FFED33FD4007985006D5F0F222C398FD9A
:0508DC000FD5F0EA2237
:1008E100C2D5EC30E709B2D5E4C39DFDE49CFCEE32
:1008F10030E715B2D5E4C39FFFE49EFE12088CC316
:10090100E49DFDE49CFC800312088C30D507C3E410
:060911009FFFE49EFE22A0
:100B0100AC08AD09AE0AAF0B7810EC4D4E4F700436
:100B11007CA57DA5C3EC13FCED13FDEE13FEEF13D5
:100B2100FF5010EC64CCFCED644CFDEE644EFEEF26
:100B310064CEFFD8DF8C088D098E0A8F0BEE547FAF
:0D0B4100FE228E088F0974A5F50AF50B221F
:00000001FF
