:03000000020800F3
:0C080000787FE4F6D8FD7581640208479B
:10091700114B3F065B4F666D7D077F6F777C395EB6
:1009270079710008250001020304050607082D0157
:10093700020408102040801037001000100010003B
:10094700100010001000100010016400015D01018B
:100957005C0002210000022300000235000002496A
:0609670000000247000041
:100AFE00E4F5937594FFF595759608F5B175B210FA
:100B0E00C2A3759D80F5BD75BC8FF597C288C28A4C
:100B1E00D2AFF589758CFF758A03D2A9D28CC2002B
:0D0B2E00F580C2B4F547F548C2A3F5642276
:060BD800B2007F587E020E
:0B0BDE00EF1FAC0670011E4C70F622E9
:060BA800F5807F017E00D4
:040BAE00EF4E601393
:100BB200750C0B750DBED50DFDD50CFAEF1F70EC43
:010BC2001E14
:030BC30080E922A4
:1009C200E4F564755D01F547F548AF80F5218F22A6
:1009D200E522654A7004E5216549701B0524E5247A
:1009E20070020523120BD8B200E52464024523707D
:1009F20021120BD8B20022D3E5249536E523953592
:100A02004006852335852436120BD8B200E4F5233F
:030A1200F52422A6
:100BC60075BCEF00000000E5BC30E4FB53BCEFAFA2
:010BD600BD61
:010BD70022FB
:100B6300120BC6EFF4601C7FC87E00120BDE120B63
:100B7300C6EFF4600E5307E07805EF08800103D851
:050B8300FDFF227F07C9
:010B8800224A
:10096E00120B63EF64076045AD07EF640760051275
:10097E000B6380F6ED14601324FD60212404702DAA
:10098E00E55D7002801CE4F55D8022E55DB4010535
:10099E00755D808018E55DC313F55D8010E55DB46F
:1009AE008005755D018006E55D25E0F55D7FE87EDD
:0409BE0003020BDE47
:100AB400120A677C017D001208E18C498D4AAE4917
:100AC400AF4A7C007D0A12088C8C5E8D5FAE49AF04
:100AD4004A7C007D0A12088C7C007D0A12088C8CEA
:100AE400608D61AE49AF4A7C007D6412088C7C0045
:0A0AF4007D0A12088C8C628D6322CB
:100B3B00E4F55CE4F5807425255CF8E6F5A0E55C4E
:100B4B0025E02437F808E6244BF8E6120BA8055CE1
:080B5B00E55CC3940840DC22B4
:100B890085353785363885233D85243E85624185FF
:0F0B99006342856043856144855E45855F4622E2
:100A1500120AFEC2A3E54845477009120AB4754794
:100A250000754801120B89120B3BD2A3E4F580E552
:100A350064455D120BA812096E20B2107F057E0079
:100A4500120BAE20B20630B2FD1209C220B3C47F2C
:100A5500057E00120BAE20B3BA30B3FDE55D6264CE
:020A650080B15E
:03000B00020BE9FC
:090BE900300003B2B432C2B43290
:10080C00020A15E493A3F8E493A34003F68001F2E3
:10081C0008DFF48029E493A3F85407240CC8C333ED
:10082C00C4540F4420C8834004F456800146F6DFBC
:10083C00E4800B0102040810204080900917E47E2C
:10084C00019360BCA3FF543F30E509541FFEE493B1
:10085C00A360010ECF54C025E060A840B8E493A378
:10086C00FAE493A3F8E493A3C8C582C8CAC583CAA3
:10087C00F0A3C8C582C8CAC583CADFE9DEE780BE5B
:01096D000089
:10088C00BC000BBE0029EF8DF084FFADF022E4CC50
:10089C00F875F008EF2FFFEE33FEEC33FCEE9DEC19
:1008AC00984005FCEE9DFE0FD5F0E9E4CEFD22ED5F
:1008BC00F8F5F0EE8420D21CFEADF075F008EF2FA9
:1008CC00FFED33FD4007985006D5F0F222C398FD9A
:0508DC000FD5F0EA2237
:1008E100C2D5EC30E709B2D5E4C39DFDE49CFCEE32
:1008F10030E715B2D5E4C39FFFE49EFE12088CC316
:10090100E49DFDE49CFC800312088C30D507C3E410
:060911009FFFE49EFE22A0
:100A6700AC08AD09AE0AAF0B7810EC4D4E4F7004D1
:100A77007CA57DA5C3EC13FCED13FDEE13FEEF1370
:100A8700FF5010EC64CCFCED644CFDEE644EFEEFC1
:100A970064CEFFD8DF8C088D098E0A8F0BEE547F4A
:0D0AA700FE228E088F0974A5F50AF50B22BA
:00000001FF
