:03000000020800F3
:0C080000787FE4F6D8FD758154020847AB
:100A6400113B3F065B4F666D7D077F6F777C395E78
:100A740079710008250001020304050607082D0109
:100A840002040810204080015400014D01014C0073
:100A94000221000002230000023500000239000098
:040AA4000237000015
:100B2600E4F5937594FFF595759608F5B175B210D1
:100B3600F589758CFF758A03D2AFD2A9D28CC2888B
:100B4600C28AC200F580C2B4F537F538C2A3F5549F
:010B5600227C
:080B7D00F8E6F5807FF47E012B
:0B0B8500EF1FAC0670011E4C70F62242
:10091700E4F554754D01F537F538AF80F5218F2291
:10092700E522653A7004E521653970270524E52439
:1009370070020523B2007F587E02120B85B200E5D4
:1009470024640F4523702DB2007F587E02120B8559
:10095700B20022D3E5249536E52395354006852355
:1009670035852436B2007F587E02120B85B200E42B
:05097700F523F5242228
:100B900075BCEF00000000E5BC30E4FB53BCEFAFD8
:010BA000BD97
:010BA1002231
:100B5700120B90EFF4601C7FC87E00120B85120BFE
:100B670090EFF4600E5307E07805EF08800103D893
:050B7700FDFF227F07D5
:010B7C002256
:100AA900120B57EF6407603AAD07EF640760051250
:100AB9000B5780F6ED14600B24FC60172405702297
:100AC900020917E54DB40104754D8022E54DC313A4
:100AD900F54D22E54DB48004754D0122E54D25E023
:020AE900F54DC9
:010AEB0022E8
:100A1A001209CD7C017D001208E18C398D3AAE397C
:100A2A00AF3A7C007D0A12088C8C4E8D4FAE39AFDE
:100A3A003A7C007D0A12088C7C007D0A12088C8C94
:100A4A00508D51AE39AF3A7C007D6412088C7C001F
:0A0A5A007D0A12088C8C528D532285
:100AEC008525A0743B2536120B7D8528A0743B25EB
:100AFC0024120B7D852AA0743B2553120B7D852B6C
:100B0C00A0743B2551120B7D852CA0743B254FF80E
:0A0B1C00E6F5807FF47E01020B85F0
:10097C00120B26C2A3E53845377009120A1A7537CF
:10098C0000753801120AECD2A3E4F580E554454D0C
:10099C00F5807F647E00120B85120AA920B2107FAD
:1009AC00647E00120B8520B2CAE54D425480C420EF
:1009BC00B3C17F647E00120B8520B3B7E4F54D8084
:0109CC00B278
:03000B00020BA243
:090BA200300003B2B432C2B432D7
:10080C0002097CE493A3F8E493A34003F68001F27D
:10081C0008DFF48029E493A3F85407240CC8C333ED
:10082C00C4540F4420C8834004F456800146F6DFBC
:10083C00E4800B0102040810204080900A64E47EDE
:10084C00019360BCA3FF543F30E509541FFEE493B1
:10085C00A360010ECF54C025E060A840B8E493A378
:10086C00FAE493A3F8E493A3C8C582C8CAC583CAA3
:10087C00F0A3C8C582C8CAC583CADFE9DEE780BE5B
:010AA800004D
:10088C00BC000BBE0029EF8DF084FFADF022E4CC50
:10089C00F875F008EF2FFFEE33FEEC33FCEE9DEC19
:1008AC00984005FCEE9DFE0FD5F0E9E4CEFD22ED5F
:1008BC00F8F5F0EE8420D21CFEADF075F008EF2FA9
:1008CC00FFED33FD4007985006D5F0F222C398FD9A
:0508DC000FD5F0EA2237
:1008E100C2D5EC30E709B2D5E4C39DFDE49CFCEE32
:1008F10030E715B2D5E4C39FFFE49EFE12088CC316
:10090100E49DFDE49CFC800312088C30D507C3E410
:060911009FFFE49EFE22A0
:1009CD00AC08AD09AE0AAF0B7810EC4D4E4F70046C
:1009DD007CA57DA5C3EC13FCED13FDEE13FEEF130B
:1009ED00FF5010EC64CCFCED644CFDEE644EFEEF5C
:1009FD0064CEFFD8DF8C088D098E0A8F0BEE547FE5
:0D0A0D00FE228E088F0974A5F50AF50B2254
:00000001FF
