:03000000020800F3
:0C080000787FE4F6D8FD75817F02084780
:1009170015623F065B4F666D7D077F6F777C395E9B
:10092700797100387467A7082A00010203040506D5
:100937000708320102040810204080103E00100012
:1009470010001000100010001000100010105200CE
:10095700000000000000000000000000000000018F
:100967007F000178010177000225000002280000BE
:10097700023A0000023C0000022100000250000081
:0B098700024E000001270002230000C8
:100BD600E4F5937594FFF595759608F5B175B21021
:100BE600C2A3759D80F5BD75BC8FF597C288C28A74
:100BF600D2AFF589758CFF758A03D2A9D28CC20053
:0F0C0600F580C2B4F54EF54FC2A3F57FD2A422FC
:0B0DBB00EF1FAC0670011E4C70F6220A
:040D50007F057E009D
:040D5400EF4E6013EB
:100D5800750C0B750DBED50DFDD50CFAEF1F70EC9B
:010D68001E6C
:030D690080E922FC
:1009F300E4F57F757801F54EF54FAF80F5258F2629
:100A0300E526B55121E525B5501C0529E5297002D8
:100A13000528640F4528703185283A85293B8521AF
:100A23003C85223D8017D3E529953BE528953A403F
:100A33000C85283A85293B85213C85223D74522526
:0A0A430022F8A629E4F528F529227F
:100D990075BCEF00000000E5BC30E4FB53BCEFAFCD
:010DA900BD8C
:010DAA002226
:100D0800120D99EFF4601C7FC87E00120DBB120D06
:100D180099EFF4600E5307E07805EF08800103D8D7
:050D2800FDFF227F0722
:010D2D0022A3
:10099300120D08EF64076051AD07EF64076005129D
:1009A3000D0880F6ED14601614603724FE602124D0
:1009B300047036E5787002801CE4F578802BE578C6
:1009C300B401057578808021E578C313F578801923
:1009D300E578B48005757801800FE57825E0F57832
:1009E3008007120CDF8E238F247FE87E03020DBB6A
:100B4A00120AFD7C017D001208E18C508D51AE50D5
:100B5A00AF517C007D0A12088C8C798D7AAE50AF29
:100B6A00517C007D0A12088C7C007D0A12088C8C4C
:100B7A007B8D7CAE50AF517C007D6412088C7C006A
:0A0B8A007D0A12088C8C7D8D7E22FE
:100D6C00E4F577E57725E0243EF876000876100563
:070D7C0077E577B408ED22D2
:100CB100E4F577E4F580742A2577F8E6F5A0E57781
:100CC10025E0243EF808E62462F8E6F5807F017EFF
:0E0CD10000120D540577E577C3940840D62233
:100D2E00120D6C853A3E853B3F85284485294585C5
:100D3E007D48857E49857B4A857C4B85794C857AB5
:020D4E004D2234
:100C1500120D6CE527700EF53EF53FF54675470953
:100C2500F548F54922753E00753F01754600754743
:100C350011754800754901754A00754B05754C00DD
:040C4500754D0722C0
:100AA600120D6CE5277021F53E753F12F540754134
:100AB60001F542754309F544754512853C48853D67
:100AC60049853A4C853B4D22753E00753F11754070
:100AD600007541017542007543057544007545076B
:100AE600E52724FFF549E434FFF54874512527F836
:070AF600E6754C00F54D22EE
:100D8300120D6C75420075430175440075450D8560
:060D9300214C85224D22D7
:100DAB00120D6C754A00754B13754C00754D142262
:100CDF00C2A3120DAB120CB120B20E120D5020B2E6
:100CEF000830B2FD7E007F012220B3E4120D5020A8
:090CFF00B3DE30B3FDE4FEFF2278
:100A4D00120D6CC2A3E54F454E7009120B4A754E3F
:100A5D0000754F01120D2E120CB1D2A3E4F580E5F5
:100A6D007F4578F5807F017E00120D541209932089
:100A7D00B20E120D5020B20830B2FD1209F380C330
:100A8D0020B30D120D5020B30730B3FDE578627F12
:090A9D00E5246401452370AB223D
:100B9400E4F527F523F524C2A3120D83120CB1202A
:100BA400B20C120D5020B20630B2FD020A4D20B331
:100BB400E6120D5020B3E030B3FDE522640F452169
:100BC4007006F521F52280CF0522E52270C90521A2
:020BD40080C5DA
:100C49008029C2A3120AA6120CB120B20D120D50AE
:100C590020B20730B2FDE4F5272220B3E5120D508A
:100C690020B3DF30B3FDE527B41005E4F52780D2C2
:040C7900052780CEFD
:100C7D00120BD6C2A3120C15120CB120B215120D07
:100C8D005020B20F30B2FDE5277005120B94800392
:100C9D00120C4920B3DD120D5020B3D730B3FD63D4
:040CAD00270180CFCC
:03000B00020DC61D
:090DC600300003B2B432C2B432B1
:10080C00020C7DE493A3F8E493A34003F68001F279
:10081C0008DFF48029E493A3F85407240CC8C333ED
:10082C00C4540F4420C8834004F456800146F6DFBC
:10083C00E4800B0102040810204080900917E47E2C
:10084C00019360BCA3FF543F30E509541FFEE493B1
:10085C00A360010ECF54C025E060A840B8E493A378
:10086C00FAE493A3F8E493A3C8C582C8CAC583CAA3
:10087C00F0A3C8C582C8CAC583CADFE9DEE780BE5B
:010992000064
:10088C00BC000BBE0029EF8DF084FFADF022E4CC50
:10089C00F875F008EF2FFFEE33FEEC33FCEE9DEC19
:1008AC00984005FCEE9DFE0FD5F0E9E4CEFD22ED5F
:1008BC00F8F5F0EE8420D21CFEADF075F008EF2FA9
:1008CC00FFED33FD4007985006D5F0F222C398FD9A
:0508DC000FD5F0EA2237
:1008E100C2D5EC30E709B2D5E4C39DFDE49CFCEE32
:1008F10030E715B2D5E4C39FFFE49EFE12088CC316
:10090100E49DFDE49CFC800312088C30D507C3E410
:060911009FFFE49EFE22A0
:100AFD00AC08AD09AE0AAF0B7810EC4D4E4F70043B
:100B0D007CA57DA5C3EC13FCED13FDEE13FEEF13D9
:100B1D00FF5010EC64CCFCED644CFDEE644EFEEF2A
:100B2D0064CEFFD8DF8C088D098E0A8F0BEE547FB3
:0D0B3D00FE228E088F0974A5F50AF50B2223
:00000001FF
